:020000040000FA
:030000000200E318
:1000830002077E00000080FB120113B90003020087
:10009300CDE4900001789479018002F0A3D8FCD9D3
:1000A300FA900094AA82AB83900116782179058097
:1000B30015E493A3AC82AD838A828B83F0A3AA82D7
:1000C300AB838C828D83D8E9D9E775821275830E51
:1000D30074001200F575828675830074001200F5B2
:1000E30075D0007581BF751080759F0075931E02D2
:1000F300008BC09FF59FE473D09F22D083D082C032
:100103009FE493C0E0740193C0E0740293F59F22CF
:100113007901226B6D2F6800533220646574656327
:1001230074656400533320646574656374656400A7
:100133002E2E2E2E2E2E20002020202057656C637D
:100143006F6D65202000FF0000000000000000002C
:1001530000000000000000000000002F000000006D
:100163000700070000147F147F1400242A7F2A123B
:10017300006264081323003649552250000005032A
:10018300000000001C224100000041221C0000145A
:10019300083E08140008083E0808000000A060009C
:1001A300000808080808000060600000002010082C
:1001B3000402003E5149453E0000427F4000004298
:1001C30061514946002141454B31001814127F10FB
:1001D300002745454539003C4A494930000171092A
:1001E300050300364949493600064949291E0000DE
:1001F3003636000000005636000000081422410085
:1002030000141414141400004122140800020151B4
:10021300090600324959513E007C1211127C007FBD
:1002230049494936003E41414122007F4141221C58
:10023300007F49494941007F09090901003E4149BD
:10024300497A007F0808087F0000417F41000020B1
:1002530040413F01007F08142241007F404040405D
:10026300007F020C027F007F0408107F003E4141A3
:10027300413E007F09090906003E4151215E007F8E
:10028300091929460046494949310001017F010105
:10029300003F4040403F001F2040201F003F4038A8
:1002A300403F0063140814630007087008070061E7
:1002B3005149454300007F41410000552A552A55C5
:1002C300000041417F00000402010204004040405D
:1002D3004040000001020400002054545478007F81
:1002E3004844443800384444442000384444487F58
:1002F30000385454541800087E0901020018A4A4BD
:10030300A47C007F080404780000447D4000004082
:1003130080847D00007F102844000000417F40005E
:10032300007C04180478007C0804047800384444F2
:10033300443800FC242424180018242418FC007CCE
:100343000804040800485454542000043F44402047
:10035300003C4040207C001C2040201C003C4030DE
:10036300403C004428102844001CA0A0A07C00446A
:1003730064544C441414141414143C473EC4E3BA98
:10038300C32CBBB6D3ADCAB9D3C300001012141823
:1003930010101F10101814F2000000101111111189
:1003A3001111111111113F00000004F4959694945A
:1003B300F404E40605F4040000003F040424243F8D
:1003C300000720203F000000FC4444FC000848884C
:1003D3000808FF080800000F04040F0000000120B4
:1003E300203F000000004042CC0004F49494FF94AA
:1003F30094F404000020100F10282422213F21220E
:1004030024280000404020100814630408102040F2
:1004130040000000000101010121110D0300000053
:100423000000404242424242FE42424242424000B7
:1004330000202010080403000304081020200000FB
:1004430010484754545454545454D40404000000E2
:100453000000000000000000000F103800004040C2
:100463005F555555D55555555F4040000020100F39
:100473001020203F2222222220200000FC4444FCA2
:1004830020AAAAAABFAAAAAA2000000F04040F0048
:100493003F0A0A0A2A2A3F00000000FF010525251A
:1004A300FD25A5250501FF0000003F1012121213C0
:1004B30012121312103F000000F8080888483F4842
:1004C30088080808F80000003F020100000000004F
:1004D3000122203F00002042048800F294909F9064
:1004E30094F200000000180601003F0404042424D1
:1004F3003F0000000000FC54565554545454FC0073
:100503000000002018011D2121232D213101041891
:100513000000844424F49C9794949494F404040079
:10052300000000003F0404040424243F00000000F2
:100533000000001200FEB607001200FE9B08001226
:1005430000FE3009001200FE6409001200FE8D094E
:10055300001200FEBA09001200FEE109001200FEBB
:10056300010A001200FE160A001200FE230A0012FE
:1005730000FE300A001200FE5A0A001200FE970A1B
:10058300001200FEB40A001200FEC10A001200FEAF
:10059300330B001200FE5E0B001200FEC30B0012B1
:1005A30000FE070C001200FE3E0C001200FE7C0C45
:1005B300001200FEB90F00E0FAA3E0FBA3E0FCA3E6
:1005C300E0FD22EAF0A3EBF0A3ECF0A3EDF022CAE6
:1005D300C0E0E6F30908DAFAD0E0FA22C3E498F8B7
:1005E300E499F91206208026C3E49AFAE49BFBE916
:1005F30020E7E9120620E498F8E499F922C3E49885
:10060300F8E499F9120620E498F8E499F9C3E49A16
:10061300FAE49BFB22EB20E7CFE920E7E0B90010E7
:10062300BB0008E88AF084F8AAF022E4FBC8FA22A7
:10063300EB70227B10C833C8C933C9335007C39A40
:10064300C3DBF280069A50012ADBEAC833F4C8C937
:1006530033F4C9FA2275F008E4C833C8C933C9337F
:10066300C99AC99B5004C92AC93BD5F0ECFBC833CE
:10067300F4C8E4C9FA22E473D083D0822510F8C504
:1006830010C39824FACEF208E520F208E9C0E07915
:1006930008E709F208DEFAD0E0F9EFF208D0E0FF4C
:1006A300D0E0FED0E0F208EEF208EFF208E473A81F
:1006B30010E2FE08E208F520E9C0E07908E208F755
:1006C30009DFFAE208FFD0E0F9E208C0E0E208C07F
:1006D300E0E208C0E088100200FBC0D0C0F088F060
:1006E3002510F8C510C39824F3C0E0E5F0F208E93B
:1006F300F208EAF208EBF208D0E0FB7908E709F226
:1007030008DBFAE582F208E583F208D0E0F208D0CC
:10071300E0F208E520F208ECF208EDF208EEF20848
:10072300EFF222A810E208C0E0E208C0E0E208FA13
:10073300E208FB7908E208F709DFFAE208F582E24A
:1007430008F583E208F5F0E208F5D0E208F520E2C7
:1007530008FCE208FDE208FEE208FF8810D0E0F999
:10076300D0E0F8D0E03274028000C9C0E0E510C3E5
:1007730099F510C91205D2D0E0F922C0E074F21243
:1007830006DDA2AFE433FEC2AFE5E9A2E6501A905C
:10079300008AE0F8A3E0F9E8496008E0F58388827D
:1007A300120679759B0053E9BFEEA2E092AF7F0179
:1007B300020726120566D2AF79017A0A7B00120579
:1007C3006090000AE0C2E7F064057035790512080D
:1007D3008D5004D2F08002C2F0A2F0E4339000CF37
:1007E300F090000FE0A2E7400302088590000DE0BF
:1007F300F8900001E0686003020885A37401020811
:1008030084E024F59000CCF090000AE0F912088D02
:100813005004D2F08002C2F0A2F0E4339000CFF093
:10082300900012E0F8A3E0F99000C8E8F0A3E9F023
:100833009000CD7414F0A37400F09000CCE0F83372
:1008430095E0F9741428F8740039F988828983E0F3
:100853009000D0F088828983A3E0A2E7501C900027
:10086300C7E0F890000DE068601090000BE054DFE3
:10087300644170069000D17401F090000DE0900087
:10088300C7F0C2AF12056C0200FB7A0B7B001205A6
:100893006090000BE0A2E52274F912067BEAFEEBFE
:1008A300FF12055AE9640170047901806FC2AF90A9
:1008B3000008EEF0A3EFF09000CDE4F0A3F0900079
:1008C3000304F09004B01205BA9000041205C67533
:1008D300F005120922A3A3E0A424D490618FF09021
:1008E3000009E0F5838882E0F8A3E0F9E8906174F9
:1008F300F0E9A3F0120922E0F8A3E0F9E8906172AD
:10090300F0E9A3F0E5A8F8C2AF90008A7436F0A32B
:100913007405F0E8A2E792AFD2AF7900020A7D90A6
:100923000008E0F8A3E0F5838882A3A322E5C65478
:1009330080F853BEFBE59DA2E550FAE59DA2E24097
:10094300F4007401697007744948F5C68005E970BD
:100953000288C6E5C6F8E59E6870FB43BE04020044
:10096300FBE9F8E59EA2E640047901801AE87005E8
:1009730053C67F8008740168700343C680E5C6F9D7
:10098300E59E6970FB79000200FBEBC313FBEA13DE
:10099300FAEAF8EBF9E824FFFAE934FFFBE84960E7
:1009A3001300000000000000000000000000000031
:1009B300000080DD0200FB74F912067BEAFEEBFF08
:1009C300EEF8EFF9E824FFFEE934FFFFE849600998
:1009D3007AE87B0312054E80E77F010206B290613D
:1009E30089E04460F09061FA7409F09061B2741583
:1009F300F09061AEE4F012056C79000200FB800D0B
:100A0300E5D98A828B83F0A3AA82AB8319E970F0BC
:100A13000200FB9061A3E0C2E6F0539AFE0200FBE2
:100A23009061A3E0D2E6F0439A010200FB74F9124D
:100A3300067BEAFEC2867905120584750808C2841E
:100A4300790A120584EE54806004D2858002C2853F
:100A5300120A8270E9802374F912067BEAFED286B9
:100A6300750808C2847905120584EE54806004D2A7
:100A7300858002C285120A8270E97F010206B2797B
:100A83000A120584D284790A120584EEC333FE1553
:100A930008E50822780079008008E8240108E93491
:100AA30000F9C3E89AE99BA2D265D03340EC020077
:100AB300FB7800800108E8C39940FA0200FBC2906A
:100AC300C2877A147B0012057ED2877A147B0012C8
:100AD300057E7AE2120B267A2C120B267A2E120B43
:100AE300267A2F120B267A237B001205727A817BDA
:100AF300001205727A1F7B001205727AA27B001224
:100B030005727AC87B001205727AA07B0012057207
:100B13007A407B001205727AAF7B00120572D29085
:100B23000200FB7B001205727A057B0012057E2210
:100B330074F912067BEC14FEEA24AFFAEB3400FBE3
:100B4300120572EEC4540F2410FA7B00120572EEE4
:100B5300540FFA7B00120572020A7D74F212067BAF
:100B63008A0E8B0F8C0A8D0BE510240EF8E2F50824
:100B730008E2F509C2907E007F00AC0AAD0BE50EDA
:100B83002EFAE50F3FFB120590750C108508828540
:100B93000983120BFF850882850983A38582088553
:100BA3008309150CE50C70E4EE24010EEF3400FF0D
:100BB300C3EE9402EF940040C1D2907F080206B2C4
:100BC30074F812067BE9FEC29074E02EFE7F008F5C
:100BD30008EE75F006A4F8A9F074D328F874003968
:100BE300F9E82508F582E93400F583120BFF0FEFCE
:100BF300C3940640DAD2907F020206B2E0FA7B0089
:100C03001205782274F612067BECFEEDFFC2908A81
:100C13000AAC0A7D00890AAA0A7B00120590800D9E
:100C2300F912059C8E828F83A3AE82AF838E828F4F
:100C330083E070ECD2907F040206B2EEC0E078004D
:100C43007900801A8A828B83E0F5C1A3AA82AB83E1
:100C5300A2E950FCC2E9E8240108E93400F9C3E839
:100C63009CE99DA2D265D03340DA75C10AA2E9504E
:100C7300FCC2E9D0E0FE0200FBC008C009A291401B
:100C830070D2F0A29430F001B392947C107D007A7C
:100C9300FB7B02120DF975080C750903780812071E
:100CA300697C017D007A02120E0875082A75090312
:100CB30078081207697C0F7D007A02120E08750806
:100CC3004875090378081207697C1E7D007A0212B1
:100CD3000E0875086675090378081207697C2D7D6F
:100CE300007A02120E087C947D007A647902120560
:100CF300A2A292406FD2F0A29530F001B392957CFC
:100D03000B7D007A997B00120DF975088475090330
:100D130078081207697C01120E047508A27509038D
:100D230078081207697C0F120E0478081207697C91
:100D33001E120E047508C075090378081207697C32
:100D43002D120E047508DE75090378081207697CF5
:100D53003C120E047508FC75090378081207697CB8
:100D63004B120E04A2935003020DF2D2F0A296305E
:100D7300F001B392967C0B7D007AA57B00120DF9EE
:100D830075081A75090478081207697C017D007AD1
:100D930006120E0875083875090478081207697C6D
:100DA3000F7D007A06120E08750856750904780837
:100DB3001207697C1E7D007A06120E087508747589
:100DC300090478081207697C2D7D007A06120E0843
:100DD30075089275090478081207697C3C7D007ACE
:100DE30006120E087CB17D007A4B79061205A2D05B
:100DF30009D0080200FB1205A87A2C7B01120554C6
:100E0300227D007A047B0012059605100510221539
:100E1300101510151090008F7407F0A37420F0A321
:100E23007419F0A37401F090008D7420F0A374255D
:100E3300F07900120548E96016790112054279003C
:100E4300120548E960097A327B0012055480F7796C
:100E530000120542D2AF43FDFD75FEFF75900F12E0
:100E6300058AC2907E008E08E50824B0FAE43400B7
:100E7300FB1205727A107B001205727A007B001256
:100E830005727F847A007B001205781FEF70F50EE0
:100E9300EEC3940940D0D2907CB97D007A017901E8
:100EA3001205A27A647B0012055453C6BFE59EA2C5
:100EB300E640FA53C6B875F10043F30C53FF3F43C2
:100EC300868043C50843C23BC2E943864043A884A6
:100ED30012055AE9640170097A327B0012055480C5
:100EE300F77A8D7B0012053CE9640170097A327B45
:100EF3000012055480F79000037401F075E1EC755E
:100F0300E1E3020FA2750801750900780812076969
:100F1300A3E0FCA3E0FD7A8C7B001205B405100569
:100F2300109000D1E4F0D2AF9000CCE06067D2F033
:100F3300A29630F001B3929690008CE024D09000FA
:100F430093F0FCC29075F06484F9743029A810F210
:100F5300E975F064A4F8AAF0E42AF9EC98F8E499A6
:100F6300F97A0A7B00120618E82430FEE51004F82B
:100F7300EEF2EC75F00A84E5F02430FF08F27C030E
:100F83007D007A037B00120590EEF912059CEFF9C0
:100F930012059CD2901205AE7A017B001205549083
:100FA30000D1E060F0C2AF9000CCE06003020F0814
:100FB300750800020F0B74F812067BE5102408F87D
:100FC300E2FE08E2FFEAF8EBF980188C828D83E0F9
:100FD30088828983F0A3A882A9838C828D83A3ACA2
:100FE30082AD838E088F09E50824FF1EE50934FFCF
:0C0FF300FFE508450970D47F020206B239
:04000005000000E314
:00000001FF
