:020000040000FA
:030000000200D328
:03001300020A904E
:100083000208CE00000080FB1200E2B90003020068
:10009300CDE4900200783D79028002F0A3D8FCD928
:1000A300FA90033CAA82AB839000E57859790380E8
:1000B30015E493A3AC82AD838A828B83F0A3AA82D7
:1000C300AB838C828D83D8E9D9E7120AA912008603
:1000D30075D0007581BF75100075110202008B7910
:1000E30001222020616C72656164792073656E64FE
:1000F300200057656C636F6D6520746F2045533125
:100103002000FF00000000000000000000000000CD
:10011300000000000000002F00000000070007009F
:1001230000147F147F1400242A7F2A1200626408BB
:100133001323003649552250000005030000000038
:100143001C224100000041221C000014083E081438
:100153000008083E0808000000A060000008080826
:100163000808000060600000002010080402003E40
:100173005149453E0000427F4000004261514946DB
:10018300002141454B31001814127F1000274545CB
:100193004539003C4A4949300001710905030036DD
:1001A3004949493600064949291E000036360000F0
:1001B30000005636000000081422410000141414F5
:1001C30014140000412214080002015109060032F0
:1001D3004959513E007C1211127C007F494949362E
:1001E300003E41414122007F4141221C007F494999
:1001F3004941007F09090901003E4149497A007FCD
:100203000808087F0000417F4100002040413F0172
:10021300007F08142241007F40404040007F020CD1
:10022300027F007F0408107F003E4141413E007F72
:1002330009090906003E4151215E007F091929463B
:100243000046494949310001017F0101003F404017
:10025300403F001F2040201F003F4038403F0063C5
:1002630014081463000708700807006151494543E7
:1002730000007F41410000552A552A5500004141A5
:100283007F0000040201020400404040404000009F
:1002930001020400002054545478007F4844443839
:1002A30000384444442000384444487F00385454C0
:1002B300541800087E0901020018A4A4A47C007F3E
:1002C300080404780000447D4000004080847D00E1
:1002D300007F102844000000417F4000007C041888
:1002E3000478007C0804047800384444443800FC53
:1002F300242424180018242418FC007C080404086F
:1003030000485454542000043F444020003C4040E3
:10031300207C001C2040201C003C4030403C00441A
:1003230028102844001CA0A0A07C004464544C4422
:1003330014141414141400000000E0FAA3E0FBA347
:10034300E0FCA3E0FD22EAF0A3EBF0A3ECF0A3EDC5
:10035300F022CAC0E0E6F0A308DAFAD0E0FA22C03D
:10036300D0251010AF08F510500205118008F510C4
:1003730050020511D2AFD0D0222510F58210AF085C
:10038300F510400215118008F51040021511D2AF87
:10039300851183222510F582E43511F58322E47358
:1003A3002510C582C0E0E51134FFC583C0E0E51028
:1003B300C3958224F910AF088583118582108008C4
:1003C300858311858210D2AFCEF0A3E520F0A37808
:1003D30008E608F0A3DEFAEFF0A3E58124FBF8E6D4
:1003E30008F0A3E608F0A30808E608F0A3E608F07F
:1003F300A315811581D0E0FED0E0F815811581E8C1
:10040300C0E0EEC0E022851183851082E0A3FEE008
:10041300A3F5207808E0A3F608DFFAE0A3FFE0A342
:10042300C0E0E0A3C0E0E0A3C0E0E0A3C0E010AF01
:10043300088582108583118008858210858311D2F7
:10044300AFD083D08222C0D02510C582C0E0E51191
:1004530034FFC583C0E0E510C3958224F310AF08D1
:100463008583118582108008858311858210D2AF20
:10047300C8F0A3E9F0A3EAF0A3EBF0A37908E70936
:10048300F0A3D8FAECF0A3EDF0A3EEF0A3EFF0A302
:10049300D0E0F0A3D0E0F0A3D0E0F0A3E520F0A3F8
:1004A300E5F0F0A322851183851082E0C0E0A3E08C
:1004B300F9A3E0FAA3E0FBA37808E0F608A3DFFAC8
:1004C300E0FCA3E0FDA3E0FEA3E0FFA3E0C0E0A304
:1004D300E0C0E0A3E0F5D0A3E0F520A3E0A3F5F0AE
:1004E30010AF08858311858210800885831185826A
:1004F30010D2AFD082D083D0E0F8D0E03274028043
:1005030000C0E0F40412037CD0E012035522C08241
:10051300C0831208AED2AF79017A7C7B02120893B2
:1005230090027CE0C2E7F06405703D79057A7D7B3B
:1005330002120893A3E0A2E55004D2F08002C2F0B5
:10054300A2F0E433900364F0900281E0A2E7400359
:100553000205F290027FE0F8900200E06860030277
:1005630005F2A374010205F1E024F5900361F09014
:10057300027CE0F97A7D7B02120893A3E0A2E550A6
:1005830004D2F08002C2F0A2F0E433900364F0904E
:10059300028412077F90035DE8F0A3E9F090036201
:1005A3007486F0A37402F0900361E0F83395E0F9E8
:1005B300748628F8740239F988828983E090036588
:1005C300F088828983A3E0A2E7501C90035CE0F8E3
:1005D30090027FE068601090027DE054DF64417018
:1005E300069003667401F090027FE090035CF0C212
:1005F300AF1208BE0208A9C082C0838A828B83120D
:100603000849E9640170047901806BC2AFA882A92B
:1006130083900207E8F0A3E9F0900362E4F0A3F00B
:1006230090020204F090059012033D90020312031E
:100633004975F00512078BE0A424D490618FF090E4
:10064300020812076FE8906174F0E9A3F0900207C3
:10065300E0F8A3120776E8906172F0E9A3F0E5A849
:10066300F8C2AF9002FC7411F0A37405F0E8A2E79E
:1006730092AFD2AF79000208A974F61203A3EAFE7F
:10068300EBFF8C088D09890A900202E0700675E180
:10069300EC75E1E3E9C394674003750A67906193DE
:1006A300E0542270F81208AE740B250A900209F088
:1006B30012078590020A6004746180027441F0A3FA
:1006C3007488F0900200E090020CF0900208120788
:1006D3007690020DE8F0A3E9F0A3EEF0A3EFF0901B
:1006E3000207E0F8A312076F900211E8F0A3E9F004
:1006F3007A0080218A82A882E50828F582E50934F8
:1007030000F583E0C0E0741328F58274023400F529
:1007130083D0E0F00AEAC3950A40D9740A250AF99E
:100723007A097B0212086C1208BE75E1E9E591A211
:10073300E150FA7591FD120785600F900201E4F014
:100743007A4A7B021207F7E060047900800279019C
:10075300900202E0700675E1EF75E1ECE9A2E0407A
:1007630006900200E004F07F0302040912079912C5
:10077300077F22120799A3A312077F22E0F8A3E0C1
:10078300F92212078BA3E022900207E0F8A31207D5
:1007930099A3A3A3A322E0F583888222E5C654800C
:1007A300F853BEFBE59DA2E550FAE59DA2E240F4B5
:1007B300007401697007744948F5C68005E9700241
:1007C30088C6E5C6F8E59E6870FB43BE0422E9F8D7
:1007D300E59EA2E64003790122E8700553C67F80B7
:1007E30008740168700343C680E5C6F9E59E697025
:1007F300FB790022EBC313FBEA13FAEAF8EBF9E8FF
:1008030024FFFAE934FFFBE849601300000000000D
:1008130000000000000000000000000080DD2274E2
:10082300F81203A3EAFEEBFFEEF8EFF9E824FFFE6C
:10083300E934FFFFE84960097AE87B031207F78090
:10084300E77F01020409C082C083906189E04460AC
:10085300F09061FA7409F09061B27415F09061AE92
:10086300E4F01208BE7900803D74F71203A375E12A
:10087300EE7591FD780080108808EA2508F582EB73
:100883003400F583E0F5D908E8C39940EB020A6523
:10089300C082C083800DE5D98A828B83F0A3AA82AC
:1008A300AB8319E970F0D083D08222C082C08390D9
:1008B30061A3E0C2E6F0539AFE80EBC082C083904E
:1008C30061A3E0D2E6F0439A0180DBC0E074F21248
:1008D3000449A2AFE433FEC2AFE5E9A2E6501690A5
:1008E30002FC12077FE84960061207991203A175FB
:1008F3009B0053E9BFEEA2E092AF7F010204A8740C
:10090300F81203A3EAFEC286790512098475080862
:10091300C284790A120984EE54806004D28580026D
:10092300C28512095470E97F0102040974F81203A5
:10093300A3EAFED286750808C2847905120984EEFB
:1009430054806004D2858002C28512095470E98004
:10095300D6790A120984D284790A120984EEC33340
:10096300FE1508E50822780079008008E8240108CC
:10097300E93400F9C3E89AE99BA2D265D03340EC8D
:10098300227800800108E8C39940FA22C290C28706
:100993007A147B00120969D2877A147B00120969E1
:1009A3007AE21209F27A2C1209F27A2E1209F27AF9
:1009B3002F1209F27A237B001209027A817B00123B
:1009C30009027A1F7B001209027AA27B0012090234
:1009D3007AC87B001209027AA07B001209027A40CE
:1009E3007B001209027AAF7B00120902D290227BAC
:1009F300001209027A057B001209692274F81203B6
:100A0300A3EC14FEEA24AFFAEB3400FB120902EE66
:100A1300C4540F2410FA7B00120902EE540FFA7B20
:100A23000012090202092A74F71203A3E9FEC29015
:100A330074E02EFE7F008F08EE75F006A4F8A9F08F
:100A4300746828F8740339F9E82508F582E9340055
:100A5300F583E0FA7B0012092F0FEFC3940640D60B
:100A6300D2907F0202040974F71203A3E9FEEA8C11
:100A7300828D83C290FC7D008E08AA087B00120938
:100A8300FF8005F9120A2AA3E070F880D3C0E0C002
:100A9300D0C082C083C28BE5C1900306F0D083D05F
:100AA30082D0D0D0E03253C6BFE59EA2E640FA53CF
:100AB300C6B89003017407F0A37420F0A37419F06F
:100AC300A37401F09002FF7420F0A37425F0790061
:100AD3001207D1E96016790112079F79001207D135
:100AE300E960097A327B0012082280F77900120745
:100AF3009FD2AF43FDFD75FEFF75900F12098FC2A4
:100B0300907E008E08E50824B0FAE43400FB120955
:100B1300027A107B001209027A007B001209027F1D
:100B2300847A007B0012092F1FEF70F50EEEC39439
:100B33000940D0D2907C4C7D037A017901120A6A74
:100B43007A647B0012082275F10075F30C53FF3FA2
:100B530043868043C50843C23BC2E943864043A85A
:100B6300849003077401F07508337509007808123F
:100B730005007C007D007A097B03120C937402123A
:100B83000362120849E9640170097A327B00120892
:100B93002280F77AFF7B021205FAE9640170097A71
:100BA300327B0012082280F7900202E4F075E1EF35
:100BB30075E1EC020C3A90030AC08275F00A9003C7
:100BC30009E0A4758303D082F8E02824209003056C
:100BD300F07C097D037A017902120A6A780812050A
:100BE300007C007D007A097B03120C9374021203CC
:100BF30062900308E4F0900306E4F0A2914031D23E
:100C0300F0A29430F001B39294900305E09002FEB9
:100C1300F079017CFE7D027A207B2512067C7A2CFA
:100C23007B011208227C3C7D037A017905120A6A52
:100C33007A017B00120822900306E060BE64236001
:100C430029900308E0C394325020900306E0C0E0EB
:100C5300900308E0F8740928F58274033400F583DF
:100C6300D0E0F0900308E004808B900308E0C39485
:100C7300325003020BB9E4F078081205007C007DC2
:100C8300007A097B03120C937402120362020BF9BC
:100C930074F81203A37408120397E0F8A3E0F98A27
:100CA300828B838003ECF0A3E8FEE9FFEE24FF18B8
:0D0CB300EF34FFF9EE4F70ED7F01020409F0
:04000005000000D324
:00000001FF
